:020000040000FA
:08000000803102288731F42F42
:100336008131D82108002E000F0E890C01390800E2
:10034600F10071088131D021080071082100C9002F
:100356007008C800080071082100CD007008CC00A4
:10036600080071082100CB007008CA00080064006C
:1003760080010131890BBB290034603031008D00CA
:100386008F0191019301920108002F0096019701B8
:10039600980199019A019B010800F0002E000F1E9A
:1003A600D129700822009A0008002E008F1ED82935
:1003B6002000EF0122009D1CE2291D121D161908BE
:1003C60008008131C8218131833106238131813191
:1003D600C021813182314222813182315C22080082
:1003E600F300730821009E009317131313140000E3
:1003F60021001318FB290D08F1000C08F000080075
:1004060068302000EA006A08ED006708DF00660829
:10041600DE006D30EA006A08E00000308231A22278
:1004260008007408803AF50080307502031D1D2A05
:1004360001307302031808007309F5007409F60009
:10044600F50A0319F60A7508F3007608F4000800A1
:10045600F4007408F2007208F3007408860087013D
:10046600010803193B2A0130F2007208F407302A0A
:1004760073087402F000F101F01BF103080022007A
:100486008E018F0190019101920193018D0121004E
:100496009E019B019C0194010330950096019701F2
:1004A6009A0199013F309800D4309300FF309D00A7
:1004B6000800083022009F0090309D0024309E00E6
:1004C60019309B009C010030F0000030F1008131B2
:1004D600AE2182310030F0000030F1008131B421CC
:1004E60082310030F0000030F1008131A821200077
:1004F600EF0108002000A300A101A20121082307A3
:10050600FB007B08860087010108FC007C08A00030
:100516002008031908002008FB00FC017B08F200F4
:100526007C08F3007A08FD007D08F4008231D122B0
:10053600823101302000A1070030A23D812A20002F
:10054600E3005F08E5005E08E4002100A001A101C8
:100556002000640884006508850012000319C82A73
:100566006430E1006108CE006008E2006208CF0056
:10057600630884310624823120004E082100A0073A
:1005860020004F082100A13DAB2A210021082000B0
:10059600DF00210020082000DE0008007408031D8B
:1005A6007408031DDA2A72088131A3210800740831
:1005B600033E86008701160001040319FD2A74080C
:1005C600033E86008701403FF500413FF600740A6E
:1005D60086008701403FF700413FF8007808803ADF
:1005E600F9007608803A7902031DFB2A750877021E
:1005F60003180800740A860087010130810741311B
:100606000318810A080020009A01990196019701B2
:100616009801073095000F309100FF309200BF30EF
:100626009300FF309400FF303E00D9001F30CE000B
:10063600EF30C3000730E4000F30B800DA01E501FF
:10064600C401B901CF01E601BA01C501D001DB0140
:10065600FF30BB00FF30C600FF30D100FF30DC00AA
:100666000730E700FF30BC00FF30C700FF30D20084
:10067600FF30DD000730E80017303D00CB001030BA
:100686003E00A60008002000AC002100261C542BCA
:1006960020002C08A7002708FA00240882317D22B2
:1006A60083312000A61B5C2B2608AB002508AA0078
:1006B6005E2BAA01AB01A801A9012908803AA7006F
:1006C6002B08803A2702031D6A2B2A0828020318E2
:1006D6007E2B2030F2000030F30020002C08A7000B
:1006E6002708F4008231D122833101302000A80787
:1006F6000030A93D602B210026188A2B20002C08EB
:10070600A7002708FA00240882317D2283312000C1
:10071600240882312B2220002A087007A4002B0807
:10072600713DA50008008131E421833181319E218C
:100736008331003A0319EC2B81319B218331200050
:10074600EE006E082100D000313050060319AF2BA1
:1007560032305006031DB42B2000161696121613BF
:1007660096133330210050060319BD2B3430500642
:10077600031DC22B2000961616121613961334303C
:10078600210050060319CB2B35305006031DD02B04
:1007960020001617161296129613363021005006B0
:1007A6000319D92B37305006031DDE2B2000961770
:1007B6001612161396123830210050060319E72B2D
:1007C60039305006031DEC2B20009617161216170B
:1007D600961200308131F321833171082100CF0058
:1007E6007008CE0000302000E6008830E7002100C7
:1007F6004F082000E90021004E082000E800823161
:1008060003228331992B2000DD004E0886008701E4
:10081600403FD000413FD100500884005108850078
:100826001200253A031DB32C4E08860087010130BD
:10083600810741310318810A2100A201A301A60103
:10084600A701FF30A400FF30A50020004E08860057
:100856008701403FD000413FD10050088400510835
:1008660085001200643A0319472C4E08860087015A
:10087600403FD000413FD100500884005108850018
:100886001200693A031D812C4E088600870101304B
:10089600810741310318810A4F0886008701010844
:1008A6008400850102308107003FD000013FD1005E
:1008B6005008D5005108D600890D893B8909D70013
:1008C600D800D900DA00DB00DC005508B000560875
:1008D600B1005708B2005808B3005908B4005A08C6
:1008E600B5005B08B6005C08B7005D088631A52632
:1008F60020003108CF003008CE0008004E088600E0
:100906008701403FD000413FD10050088400510884
:1009160085001200253A031DA82C4E088600870183
:100926000130810741310318810A2530F200003079
:10093600F3005D08D0005008F4008231D122013066
:100946002000CE000030CF0008004E088600870148
:100956000130810741310318810ACE01CF01080019
:100966004E0886008701403FD000413FD100500825
:100976008400510885000008D200D3015208F20015
:100986005308F3005D08D4005408F4008231D122E4
:10099600843120004E0886008701013081074131ED
:1009A6000318810AA22CF201283086000030870045
:1009B600473FF000F01F002D2000A809A909AA0949
:1009C600AB09AC09AD09AE09AF09A80A031DFE2C97
:1009D600A90A031DFE2CAA0A031DFE2CAB0A031D41
:1009E600FE2CAC0A031DFE2CAD0A031DFE2CAE0A1E
:1009F600031DFE2CAF0AF201F20A203086000030F9
:100A06008700473FF000F01F272D2000A009A1090D
:100A1600A209A309A409A509A609A709A00A031DF5
:100A2600272DA10A031D272DA20A031D272DA30A80
:100A3600031D272DA40A031D272DA50A031D272DF7
:100A4600A60A031D272DA70A200020082104220438
:100A56002304240425042604270403197F2DF10109
:100A6600F10AA71B432DA035A10DA20DA30DA40DC0
:100A7600A50DA60DA70D0130F0007008F107342D65
:100A860027082F02031D612D26082E02031D612D46
:100A960025082D02031D612D24082C02031D612D3E
:100AA60023082B02031D612D22082A02031D612D36
:100AB60021082902031D612D20082802031C732D1D
:100AC6002008A8022108A93B2208AA3B2308AB3B21
:100AD6002408AC3B2508AD3B2608AE3B2708AF3BB8
:100AE600A736A60CA50CA40CA30CA20CA10CA00C5A
:100AF6000130F102031D432D72080319A02DA80928
:100B0600A909AA09AB09AC09AD09AE09AF09A80A3A
:100B1600031DA02DA90A031DA02DAA0A031DA02DA1
:100B2600AB0A031DA02DAC0A031DA02DAD0A031DA3
:100B3600A02DAE0A031DA02DAF0A20002808A00094
:100B46002908A1002A08A2002B08A3002C08A4004B
:100B56002D08A5002E08A6002F08A7000800F20100
:100B66002030860000308700473FF000F01FDC2D64
:100B76002000A009A109A209A309A409A509A6099B
:100B8600A709A00A031DDA2DA10A031DDA2DA20A60
:100B9600031DDA2DA30A031DDA2DA40A031DDA2D7F
:100BA600A50A031DDA2DA60A031DDA2DA70AF201EE
:100BB600F20A2830860000308700473FF000F01F19
:100BC600072E2000A809A909AA09AB09AC09AD0995
:100BD600AE09AF09A80A031D032EA90A031D032E99
:100BE600AA0A031D032EAB0A031D032EAC0A031D1E
:100BF600032EAD0A031D032EAE0A031D032EAF0AF4
:100C06000130F0007008F20673308600003087006D
:100C16000830F00000301E00F00B0E2E20002008D9
:100C2600210422042304240425042604270403198A
:100C3600722EF101F10AA71B2D2EA035A10DA20DD2
:100C4600A30DA40DA50DA60DA70D0130F00070088B
:100C5600F1071E2EF335F40DF50DF60DF70DF80D13
:100C6600F90DFA0D27082F02031D532E26082E0212
:100C7600031D532E25082D02031D532E24082C0276
:100C8600031D532E23082B02031D532E22082A026E
:100C9600031D532E21082902031D532E2008280266
:100CA600031C662E2008A8022108A93B2208AA3B9D
:100CB6002308AB3B2408AC3B2508AD3B2608AE3BDE
:100CC6002708AF3B7314A736A60CA50CA40CA30CDF
:100CD600A20CA10CA00C0130F102031D2D2E7208EE
:100CE6000319932EF309F409F509F609F709F8092A
:100CF600F909FA09F30A031D932EF40A031D932E2C
:100D0600F50A031D932EF60A031D932EF70A031DFB
:100D1600932EF80A031D932EF90A031D932EFA0A41
:100D260073082000A0007408A1007508A2007608C8
:100D3600A3007708A4007808A5007908A6007A0819
:100D4600A70008002000BF003008C4003108C50015
:100D56003208C6003308C7003408C8003508C90081
:100D66003608CA003708CB004430860000308700BA
:100D7600473FB800B81FC12E0130C22E00302000F8
:100D8600B900BA013908C2003A08C3004208430450
:100D96000319EB2EC409C509C609C709C809C9093B
:100DA600CA09CB09C40A031DEB2EC50A031DEB2E87
:100DB600C60A031DEB2EC70A031DEB2EC80A031D28
:100DC600EB2EC90A031DEB2ECA0A031DEB2ECB0A16
:100DD6002100A51BF22EFD30A605FF30A70525082C
:100DE600803A2000B80080303802031DFD2E013005
:100DF600210024020318052F01302000BD00003019
:100E0600BE000D2F210025082000BE002100240869
:100E16002000BD00210023082000C1002100220877
:100E26002000C00042084304031D1C2F2100261D7C
:100E3600212FFF302000C007FF30C13D1F302000AA
:100E4600CC000030CD002100C701B62F2000440899
:100E5600450446044704480449044A044B04031D58
:100E66004E2F3E08803AB80080303802031D3D2FD1
:100E760001303D0203184E2F20004108803AB80089
:100E860080303802031D492F01304002031CC22F57
:100E96002100A61CC22FFF302000CC07FF30CD3D1D
:100EA6000A30A000A101A201A301A401A501A60187
:100EB600A7014408A8004508A9004608AA00470853
:100EC600AB004808AC004908AD004A08AE004B0824
:100ED600AF008431D624863120002108F400200892
:100EE600F3008231142286317308303E2000B800A8
:100EF6004C08A83E8600870138088100FF30BD07F0
:100F0600FF30BE3DFF30C007FF30C13D0A30A000B4
:100F1600A101A201A301A401A501A601A7014408FC
:100F2600A8004508A9004608AA004708AB004808DB
:100F3600AC004908AD004A08AE004B08AF00853149
:100F4600B225863120002008C4002108C5002208E9
:100F5600C6002308C7002408C8002508C9002608BB
:100F6600CA002708CB0020004D08803AB800803020
:100F76003802031DC02F01304C020318292F200010
:100F860042084304031DCA2F2100261DE12FFF300E
:100F96002000CC07FF30CD3D42084304031DD52F6A
:100FA6002B30D62F2D30BB000030BC003B08B800DC
:100FB6004C08A83E860087013808810020004C08AE
:100FC600A83EB8003808A4004108A6004008A500BD
:100FD6003F088331462320002508B1002408B000CD
:100FE60008002000EF01A030840000308500283082
:100FF6008131BA2120008331962B253464340A349A
:021006000034B4
:020000040001F9
:0A000E00EC3FFF3F9F3FFF3FFF3F25
:00000001FF
