:020000040000FA
:08000000803102288731F62F40
:100BA20086310F2608002E000F0E890C013908002D
:100BB200F10071088531FE25080071082000E2006D
:100BC2007008E100080071082000E6007008E500E6
:100BD200080071082000E4007008E30008006400C7
:100BE20080010131890BF12D00342F00960197010C
:100BF200980199019A019B010800F0002E000F1E36
:100C0200FF2D700822009A000800603031008D002C
:100C12008F01910106309300920108002E008F1E71
:100C22000F2E2000C80122009D1C192E1D121D1618
:100C3200190808008531F625863187311827863153
:100C420086310626863186314B26863186316226EA
:100C52000800F300730821009E0093171313131466
:100C6200000021001318322E0D08F1000C08F000CC
:100C7200080058302000D8005808DB005708CF0081
:100C82005608CE005B30D8005808D00000308631BC
:100C92008426080022008E018F01900191019201A9
:100CA20093018D0121009E019B019C0194019501FC
:100CB200960197019A0199019801D43093009D0100
:100CC2000800083022009F0090309D0024309E00D2
:100CD20040309B0003309C000030F0000030F100F7
:100CE2008531E42586310030F0000030F100853195
:100CF200EA2586310030F0000030F1008531DE2532
:100D02002000C80108002000D3004F08D5004E087B
:100D1200D400C001C10154088400550885001200A6
:100D22000319A52E5430D1005108FA005008D20000
:100D32005208FB0053088731582786317A08200071
:100D4200C0077B08C13D8C2E4108CF004008CE0071
:100D520008007408031D7408031DB32E7208853140
:100D6200D92508007408033E860087011600010495
:100D72000319D62E7408033E86008701403FF50012
:100D8200413FF600740A86008701403FF700413F69
:100D9200F8007808803AF9007608803A7902031D53
:100DA200D42E7508770203180800740A860087019A
:100DB2000130810741310318810A080086311B2660
:100DC20086318531D4258631003A0319FB2E8531CF
:100DD200D12586312000DC005C08E000413060064D
:100DE200031DF52E9616161342306006031DFB2EC8
:100DF20016179612003086312A2686317108200095
:100E0200DF007008DE005F08D7005E08D60086317A
:100E12003A26863105302000DD000F30DC00F1304B
:100E2200890B112FDC0B112FDD0B112FE22E20006D
:100E32009A019901960197019801073095000F30A8
:100E42009100FF309200BF309300FF309400FF30DA
:100E52003E00D9001F30CE00EF30C3000730E4005F
:100E62000F30B800DA01E501C401B901CF01E60192
:100E7200BA01C501D001DB01FF30BB00FF30C60063
:100E8200FF30D100FF30DC000730E700FF30BC004C
:100E9200FF30C700FF30D200FF30DD000730E8002E
:100EA20017303D00CB0010303E00A6000800FD00C8
:100EB2007A0886008701403F2000C900413FCA00EE
:100EC200490884004A0885001200253A031DD42FE0
:100ED2007A08860087010130810741310318810AAF
:100EE200C201C301C601C701FF30C400FF30C50003
:100EF2007A0886008701403FC900413FCA0049087D
:100F020084004A08850012006E3A031DA52F7A0854
:100F1200860087010130810741310318810A7B086D
:100F220086008701403F84008501810A0008C900CC
:100F32004908FC007C08860087014008C03F410840
:100F4200C13FFA01FB0108007A0886008701403F91
:100F5200C900413FCA00490884004A0885001200BE
:100F6200253A031DCB2F7A088600870101308107BD
:100F720041310318810A2530F2000030F3007D0868
:100F8200C9004908F4008631AA260130FA0000306F
:100F9200FB0008007A088600870101308107413191
:100FA2000318810AA22F7A0886008701403FC900F0
:100FB200413FCA00490884004A0885000008CB0066
:100FC200CC014B08F2004C08F3007D08CD004D081F
:100FD200F4008631AA2687317A088600870101301B
:100FE200810741310318810AC62F20308400003066
:0E0FF200850029308531F02520008631DF2E64
:020000040001F9
:0A000E00EC3FFF3F9F3FFF3FFF3F25
:00000001FF
