:020000040000FA
:08000000803102288731F62F40
:100BBA0086311B2608002E000F0E890C0139080009
:100BCA00F100710886310A26080071082000E10048
:100BDA007008E000080071082000E5007008E400D1
:100BEA00080071082000E3007008E20008006400B1
:100BFA0080010131890BFD2D00342F0096019701E8
:100C0A00980199019A019B010800F0002E000F1E1D
:100C1A000B2E700822009A000800603031008D0007
:100C2A008F01910106309300920108002E008F1E59
:100C3A001B2E2000C80122009D1C252E1D121D16E8
:100C4A00190808008631022686318731182786312D
:100C5A0086311226863186315726863186316E26AE
:100C6A000800F300730821009E009317131313144E
:100C7A000000210013183E2E0D08F1000C08F000A8
:100C8A00080058302000D8005808DB005708CF0069
:100C9A005608CE005B30D8005808D00000308631A4
:100CAA009026080022008E018F0190019101920185
:100CBA0093018D0121009E019B019C0194019501E4
:100CCA00960197019A0199019801D43093009D01E8
:100CDA000800083022009F0090309D0024309E00BA
:100CEA0040309B0003309C000030F0000030F100DF
:100CFA008531F02586310030F0000030F100853171
:100D0A00F62586310030F0000030F1008531EA2501
:100D1A002000C80108002000D3004F08D5004E0863
:100D2A00D400C001C101540884005508850012008E
:100D3A000319B12E5430D1005108FA005008D200DC
:100D4A005208FB0053088731582786317A08200059
:100D5A00C0077B08C13D982E4108CF004008CE004D
:100D6A0008008631272686318531E0258631003A0A
:100D7A000319D22E8531DD2586312000DC005C087E
:100D8A00DF0041305F06031DCC2E96161613423043
:100D9A005F06031DD22E16179612003086313626AC
:100DAA00863171082000DE007008DD005E08D70079
:100DBA005D08D600863146268631B92E7408031D91
:100DCA007408031DEC2E72088531E52508007408A5
:100DDA00033E860087011600010403190F2F7408C9
:100DEA00033E86008701403FF500413FF600740A42
:100DFA0086008701403FF700413FF8007808803AB3
:100E0A00F9007608803A7902031D0D2F75087702DA
:100E1A0003180800740A86008701013081074131EE
:100E2A000318810A080020009A0199019601970186
:100E3A009801073095000F309100FF309200BF30C3
:100E4A009300FF309400FF303E00D9001F30CE00DF
:100E5A00EF30C3000730E4000F30B800DA01E501D3
:100E6A00C401B901CF01E601BA01C501D001DB0114
:100E7A00FF30BB00FF30C600FF30D100FF30DC007E
:100E8A000730E700FF30BC00FF30C700FF30D20058
:100E9A00FF30DD000730E80017303D00CB0010308E
:100EAA003E00A6000800FD007A0886008701403F40
:100EBA002000C900413FCA00490884004A08850049
:100ECA001200253A031DD42F7A08860087010130C3
:100EDA00810741310318810AC201C301C601C70152
:100EEA00FF30C400FF30C5007A0886008701403F02
:100EFA00C900413FCA00490884004A088500120017
:100F0A006E3A031DA52F7A088600870101308107F2
:100F1A0041310318810A7B0886008701403F84001B
:100F2A008501810A0008C9004908FC007C0886007E
:100F3A0087014008C03F4108C13FFA01FB01080090
:100F4A007A0886008701403FC900413FCA00490824
:100F5A0084004A0885001200253A031DCB2F7A081F
:100F6A00860087010130810741310318810A253043
:100F7A00F2000030F3007D08C9004908F400863108
:100F8A00E3260130FA000030FB0008007A088600E8
:100F9A0087010130810741310318810AA22F7A089B
:100FAA0086008701403FC900413FCA0049088400C2
:100FBA004A0885000008CB00CC014B08F2004C0817
:100FCA00F3007D08CD004D08F4008631E326873111
:100FDA007A08860087010130810741310318810AA6
:100FEA00C62F203084000030850029308531FC2549
:060FFA0020008631B62E36
:020000040001F9
:0A000E00EC3FFF3F9F3FFF3FFF3F25
:00000001FF
